{
  "contracts/EtherlinkPythMonitor.sol": {
    "EtherlinkPythMonitor": {
      "abi": [
        {
          "inputs": [
            {
              "internalType": "address",
              "name": "_admin",
              "type": "address"
            },
            {
              "internalType": "address",
              "name": "_pyth",
              "type": "address"
            },
            {
              "internalType": "bytes32",
              "name": "_priceId",
              "type": "bytes32"
            },
            {
              "internalType": "string",
              "name": "_symbol",
              "type": "string"
            },
            {
              "internalType": "enum Network",
              "name": "_network",
              "type": "uint8"
            }
          ],
          "stateMutability": "nonpayable",
          "type": "constructor"
        },
        {
          "inputs": [
            {
              "internalType": "address",
              "name": "_admin",
              "type": "address"
            }
          ],
          "name": "addAdmin",
          "outputs": [
            {
              "internalType": "bool",
              "name": "_added",
              "type": "bool"
            }
          ],
          "stateMutability": "nonpayable",
          "type": "function"
        },
        {
          "inputs": [],
          "name": "getAge",
          "outputs": [
            {
              "internalType": "uint256",
              "name": "_age",
              "type": "uint256"
            }
          ],
          "stateMutability": "view",
          "type": "function"
        },
        {
          "inputs": [],
          "name": "getCurrentPrice",
          "outputs": [
            {
              "components": [
                {
                  "internalType": "int64",
                  "name": "price",
                  "type": "int64"
                },
                {
                  "internalType": "uint64",
                  "name": "conf",
                  "type": "uint64"
                },
                {
                  "internalType": "int32",
                  "name": "expo",
                  "type": "int32"
                },
                {
                  "internalType": "uint256",
                  "name": "publishTime",
                  "type": "uint256"
                }
              ],
              "internalType": "struct PythStructs.Price",
              "name": "_price",
              "type": "tuple"
            }
          ],
          "stateMutability": "view",
          "type": "function"
        },
        {
          "inputs": [],
          "name": "getName",
          "outputs": [
            {
              "internalType": "string",
              "name": "_name",
              "type": "string"
            }
          ],
          "stateMutability": "view",
          "type": "function"
        },
        {
          "inputs": [],
          "name": "getPrice",
          "outputs": [
            {
              "components": [
                {
                  "internalType": "string",
                  "name": "provider",
                  "type": "string"
                },
                {
                  "internalType": "address",
                  "name": "source",
                  "type": "address"
                },
                {
                  "internalType": "address",
                  "name": "monitor",
                  "type": "address"
                },
                {
                  "internalType": "enum Network",
                  "name": "network",
                  "type": "uint8"
                },
                {
                  "internalType": "string",
                  "name": "symbol",
                  "type": "string"
                },
                {
                  "internalType": "uint256",
                  "name": "price",
                  "type": "uint256"
                },
                {
                  "internalType": "uint256",
                  "name": "priceDate",
                  "type": "uint256"
                },
                {
                  "internalType": "uint256",
                  "name": "date",
                  "type": "uint256"
                }
              ],
              "internalType": "struct EtherlinkOraclePrice",
              "name": "_price",
              "type": "tuple"
            }
          ],
          "stateMutability": "view",
          "type": "function"
        },
        {
          "inputs": [],
          "name": "getPriceAtAge",
          "outputs": [
            {
              "components": [
                {
                  "internalType": "string",
                  "name": "provider",
                  "type": "string"
                },
                {
                  "internalType": "address",
                  "name": "source",
                  "type": "address"
                },
                {
                  "internalType": "address",
                  "name": "monitor",
                  "type": "address"
                },
                {
                  "internalType": "enum Network",
                  "name": "network",
                  "type": "uint8"
                },
                {
                  "internalType": "string",
                  "name": "symbol",
                  "type": "string"
                },
                {
                  "internalType": "uint256",
                  "name": "price",
                  "type": "uint256"
                },
                {
                  "internalType": "uint256",
                  "name": "priceDate",
                  "type": "uint256"
                },
                {
                  "internalType": "uint256",
                  "name": "date",
                  "type": "uint256"
                }
              ],
              "internalType": "struct EtherlinkOraclePrice",
              "name": "_price",
              "type": "tuple"
            }
          ],
          "stateMutability": "view",
          "type": "function"
        },
        {
          "inputs": [],
          "name": "getPriceId",
          "outputs": [
            {
              "internalType": "bytes32",
              "name": "_priceId",
              "type": "bytes32"
            },
            {
              "internalType": "string",
              "name": "_symbol",
              "type": "string"
            }
          ],
          "stateMutability": "view",
          "type": "function"
        },
        {
          "inputs": [],
          "name": "getVersion",
          "outputs": [
            {
              "internalType": "uint256",
              "name": "_version",
              "type": "uint256"
            }
          ],
          "stateMutability": "pure",
          "type": "function"
        },
        {
          "inputs": [
            {
              "internalType": "address",
              "name": "_admin",
              "type": "address"
            }
          ],
          "name": "removeAdmin",
          "outputs": [
            {
              "internalType": "bool",
              "name": "_removed",
              "type": "bool"
            }
          ],
          "stateMutability": "nonpayable",
          "type": "function"
        },
        {
          "inputs": [
            {
              "internalType": "uint256",
              "name": "_age",
              "type": "uint256"
            }
          ],
          "name": "setAge",
          "outputs": [
            {
              "internalType": "bool",
              "name": "_set",
              "type": "bool"
            }
          ],
          "stateMutability": "nonpayable",
          "type": "function"
        },
        {
          "inputs": [
            {
              "internalType": "bytes32",
              "name": "_priceId",
              "type": "bytes32"
            },
            {
              "internalType": "string",
              "name": "_symbol",
              "type": "string"
            }
          ],
          "name": "setPriceId",
          "outputs": [
            {
              "internalType": "bool",
              "name": "_set",
              "type": "bool"
            }
          ],
          "stateMutability": "nonpayable",
          "type": "function"
        }
      ],
      "evm": {
        "bytecode": {
          "linkReferences": {},
          "object": "60e0604052601660a09081527f45544845524c494e4b5f505954485f4d4f4e49544f520000000000000000000060c05260029061003c90826101d3565b50603c60065534801561004d575f5ffd5b5060405161132938038061132983398101604081905261006c916102b6565b846100d6816001600160a01b03165f8181526001602081905260408220805460ff191682179055815480820183559180527f290decd9548b62a8d60345a988386fc84ba6bc95484008f6362f93160ef3e56390910180546001600160a01b03191690921790915590565b50503060805260058054610100600160a81b0319166101006001600160a01b038716021790556003839055600461010d83826101d3565b506005805482919060ff19166001838181111561012c5761012c6103b6565b021790555050505050506103ca565b634e487b7160e01b5f52604160045260245ffd5b600181811c9082168061016357607f821691505b60208210810361018157634e487b7160e01b5f52602260045260245ffd5b50919050565b601f8211156101ce57805f5260205f20601f840160051c810160208510156101ac5750805b601f840160051c820191505b818110156101cb575f81556001016101b8565b50505b505050565b81516001600160401b038111156101ec576101ec61013b565b610200816101fa845461014f565b84610187565b6020601f821160018114610232575f831561021b5750848201515b5f19600385901b1c1916600184901b1784556101cb565b5f84815260208120601f198516915b828110156102615787850151825560209485019460019092019101610241565b508482101561027e57868401515f19600387901b60f8161c191681555b50505050600190811b01905550565b80516001600160a01b03811681146102a3575f5ffd5b919050565b8051600281106102a3575f5ffd5b5f5f5f5f5f60a086880312156102ca575f5ffd5b6102d38661028d565b94506102e16020870161028d565b6040870151606088015191955093506001600160401b03811115610303575f5ffd5b8601601f81018813610313575f5ffd5b80516001600160401b0381111561032c5761032c61013b565b604051601f8201601f19908116603f011681016001600160401b038111828210171561035a5761035a61013b565b6040528181528282016020018a1015610371575f5ffd5b5f5b8281101561038f57602081850181015183830182015201610373565b505f602083830101528094505050506103aa608087016102a8565b90509295509295909350565b634e487b7160e01b5f52602160045260245ffd5b608051610f476103e25f395f6102b20152610f475ff3fe608060405234801561000f575f5ffd5b50600436106100a6575f3560e01c8063704802751161006e5780637048027514610120578063967e6e651461013357806398d5fdca1461013b5780639eb5a6ec14610143578063d5dcf12714610159578063eb91d37e1461016c575f5ffd5b80630d8e6e2c146100aa5780631619b928146100c05780631785f53c146100d557806317d7de7c146100f8578063492f8fb11461010d575b5f5ffd5b60055b6040519081526020015b60405180910390f35b6100c86101b7565b6040516100b79190610abc565b6100e86100e3366004610b62565b6103a8565b60405190151581526020016100b7565b610100610444565b6040516100b79190610b8f565b6100e861011b366004610c0f565b6104d4565b6100e861012e366004610b62565b61051d565b6006546100ad565b6100c861060e565b61014b610687565b6040516100b7929190610cad565b6100e8610167366004610ccd565b610721565b610174610758565b6040516100b79190815160070b815260208083015167ffffffffffffffff169082015260408083015160030b908201526060918201519181019190915260800190565b604080516101008101825260608082525f60208301819052928201839052808201839052608082015260a0810182905260c0810182905260e081019190915260055460035460065460405163052571af60e51b8152600481019290925260248201525f9161010090046001600160a01b03169063a4ae35e0906044015b608060405180830381865afa15801561024f573d5f5f3e3d5ffd5b505050506040513d601f19601f820116820180604052508101906102739190610ce4565b60408051610140810182526004610100808301918252630a0b2a8960e31b6101208401529082526005549081046001600160a01b0390811660208401527f00000000000000000000000000000000000000000000000000000000000000001692820192909252919250606082019060ff1660018111156102f5576102f5610a88565b81526020016004805461030790610d5b565b80601f016020809104026020016040519081016040528092919081815260200182805461033390610d5b565b801561037e5780601f106103555761010080835404028352916020019161037e565b820191905f5260205f20905b81548152906001019060200180831161036157829003601f168201915b50505050508152602001825f015160070b8152602001826060015181526020014281525091505090565b335f9081526001602052604081205460ff166103df5760405162461bcd60e51b81526004016103d690610d93565b60405180910390fd5b6001600160a01b0382165f9081526001602052604090205460ff166104355760405162461bcd60e51b815260206004820152600c60248201526b34b9903737ba1030b236b4b760a11b60448201526064016103d6565b61043e826107fb565b92915050565b60606002805461045390610d5b565b80601f016020809104026020016040519081016040528092919081815260200182805461047f90610d5b565b80156104ca5780601f106104a1576101008083540402835291602001916104ca565b820191905f5260205f20905b8154815290600101906020018083116104ad57829003601f168201915b5050505050905090565b335f9081526001602052604081205460ff166105025760405162461bcd60e51b81526004016103d690610d93565b600383905560046105138382610e03565b5060019392505050565b335f9081526001602052604081205460ff1661054b5760405162461bcd60e51b81526004016103d690610d93565b6001600160a01b0382165f9081526001602052604090205460ff16156105a65760405162461bcd60e51b815260206004820152601060248201526f34b99030b63932b0b23c9030b236b4b760811b60448201526064016103d6565b6001600160a01b0382165f8181526001602081905260408220805460ff191682179055815480820183559180527f290decd9548b62a8d60345a988386fc84ba6bc95484008f6362f93160ef3e56390910180546001600160a01b03191690921790915561043e565b604080516101008101825260608082525f60208301819052928201839052808201839052608082015260a0810182905260c0810182905260e08101919091526005546003546040516396834ad360e01b815260048101919091525f9161010090046001600160a01b0316906396834ad390602401610234565b5f6060600354600480805461069b90610d5b565b80601f01602080910402602001604051908101604052809291908181526020018280546106c790610d5b565b80156107125780601f106106e957610100808354040283529160200191610712565b820191905f5260205f20905b8154815290600101906020018083116106f557829003601f168201915b50505050509050915091509091565b335f9081526001602052604081205460ff1661074f5760405162461bcd60e51b81526004016103d690610d93565b50600655600190565b604080516080810182525f80825260208201819052918101829052606081019190915260055460035460065460405163052571af60e51b8152600481019290925260248201526101009091046001600160a01b03169063a4ae35e090604401608060405180830381865afa1580156107d2573d5f5f3e3d5ffd5b505050506040513d601f19601f820116820180604052508101906107f69190610ce4565b905090565b5f80546001106108435760405162461bcd60e51b8152602060048201526013602482015272696e73756666696369656e742061646d696e7360681b60448201526064016103d6565b6001600160a01b0382165f908152600160209081526040808320805460ff1916905582548151818402810184019092528082526108be9391928301828280156108b357602002820191905f5260205f20905b81546001600160a01b03168152600190910190602001808311610895575b5050505050836108da565b80516108d1915f916020909101906109ce565b50600192915050565b6060600183516108ea9190610ed2565b67ffffffffffffffff81111561090257610902610ba1565b60405190808252806020026020018201604052801561092b578160200160208202803683370190505b5090505f805b84518110156109c657836001600160a01b031685828151811061095657610956610ee5565b60200260200101516001600160a01b0316146109be5784818151811061097e5761097e610ee5565b602002602001015183838151811061099857610998610ee5565b6001600160a01b0390921660209283029190910190910152816109ba81610ef9565b9250505b600101610931565b505092915050565b828054828255905f5260205f20908101928215610a21579160200282015b82811115610a2157825182546001600160a01b0319166001600160a01b039091161782556020909201916001909101906109ec565b50610a2d929150610a31565b5090565b5b80821115610a2d575f8155600101610a32565b5f81518084525f5b81811015610a6957602081850181015186830182015201610a4d565b505f602082860101526020601f19601f83011685010191505092915050565b634e487b7160e01b5f52602160045260245ffd5b60028110610ab857634e487b7160e01b5f52602160045260245ffd5b9052565b602081525f82516101006020840152610ad9610120840182610a45565b905060018060a01b0360208501511660408401526040840151610b0760608501826001600160a01b03169052565b506060840151610b1a6080850182610a9c565b506080840151838203601f190160a0850152610b368282610a45565b91505060a084015160c084015260c084015160e084015260e08401516101008401528091505092915050565b5f60208284031215610b72575f5ffd5b81356001600160a01b0381168114610b88575f5ffd5b9392505050565b602081525f610b886020830184610a45565b634e487b7160e01b5f52604160045260245ffd5b6040516080810167ffffffffffffffff81118282101715610bd857610bd8610ba1565b60405290565b604051601f8201601f1916810167ffffffffffffffff81118282101715610c0757610c07610ba1565b604052919050565b5f5f60408385031215610c20575f5ffd5b82359150602083013567ffffffffffffffff811115610c3d575f5ffd5b8301601f81018513610c4d575f5ffd5b803567ffffffffffffffff811115610c6757610c67610ba1565b610c7a601f8201601f1916602001610bde565b818152866020838501011115610c8e575f5ffd5b816020840160208301375f602083830101528093505050509250929050565b828152604060208201525f610cc56040830184610a45565b949350505050565b5f60208284031215610cdd575f5ffd5b5035919050565b5f6080828403128015610cf5575f5ffd5b50610cfe610bb5565b82518060070b8114610d0e575f5ffd5b8152602083015167ffffffffffffffff81168114610d2a575f5ffd5b60208201526040830151600381900b8114610d43575f5ffd5b60408201526060928301519281019290925250919050565b600181811c90821680610d6f57607f821691505b602082108103610d8d57634e487b7160e01b5f52602260045260245ffd5b50919050565b6020808252600a908201526961646d696e206f6e6c7960b01b604082015260600190565b601f821115610dfe57805f5260205f20601f840160051c81016020851015610ddc5750805b601f840160051c820191505b81811015610dfb575f8155600101610de8565b50505b505050565b815167ffffffffffffffff811115610e1d57610e1d610ba1565b610e3181610e2b8454610d5b565b84610db7565b6020601f821160018114610e63575f8315610e4c5750848201515b5f19600385901b1c1916600184901b178455610dfb565b5f84815260208120601f198516915b82811015610e925787850151825560209485019460019092019101610e72565b5084821015610eaf57868401515f19600387901b60f8161c191681555b50505050600190811b01905550565b634e487b7160e01b5f52601160045260245ffd5b8181038181111561043e5761043e610ebe565b634e487b7160e01b5f52603260045260245ffd5b5f60018201610f0a57610f0a610ebe565b506001019056fea2646970667358221220a86e6a5d5350058c8e1d5f24a439637d0efa275b4c466c017a0863169a680d7464736f6c634300081b0033",
          "opcodes": "PUSH1 0xE0 PUSH1 0x40 MSTORE PUSH1 0x16 PUSH1 0xA0 SWAP1 DUP2 MSTORE PUSH32 0x45544845524C494E4B5F505954485F4D4F4E49544F5200000000000000000000 PUSH1 0xC0 MSTORE PUSH1 0x2 SWAP1 PUSH2 0x3C SWAP1 DUP3 PUSH2 0x1D3 JUMP JUMPDEST POP PUSH1 0x3C PUSH1 0x6 SSTORE CALLVALUE DUP1 ISZERO PUSH2 0x4D JUMPI PUSH0 PUSH0 REVERT JUMPDEST POP PUSH1 0x40 MLOAD PUSH2 0x1329 CODESIZE SUB DUP1 PUSH2 0x1329 DUP4 CODECOPY DUP2 ADD PUSH1 0x40 DUP2 SWAP1 MSTORE PUSH2 0x6C SWAP2 PUSH2 0x2B6 JUMP JUMPDEST DUP5 PUSH2 0xD6 DUP2 PUSH1 0x1 PUSH1 0x1 PUSH1 0xA0 SHL SUB AND PUSH0 DUP2 DUP2 MSTORE PUSH1 0x1 PUSH1 0x20 DUP2 SWAP1 MSTORE PUSH1 0x40 DUP3 KECCAK256 DUP1 SLOAD PUSH1 0xFF NOT AND DUP3 OR SWAP1 SSTORE DUP2 SLOAD DUP1 DUP3 ADD DUP4 SSTORE SWAP2 DUP1 MSTORE PUSH32 0x290DECD9548B62A8D60345A988386FC84BA6BC95484008F6362F93160EF3E563 SWAP1 SWAP2 ADD DUP1 SLOAD PUSH1 0x1 PUSH1 0x1 PUSH1 0xA0 SHL SUB NOT AND SWAP1 SWAP3 OR SWAP1 SWAP2 SSTORE SWAP1 JUMP JUMPDEST POP POP ADDRESS PUSH1 0x80 MSTORE PUSH1 0x5 DUP1 SLOAD PUSH2 0x100 PUSH1 0x1 PUSH1 0xA8 SHL SUB NOT AND PUSH2 0x100 PUSH1 0x1 PUSH1 0x1 PUSH1 0xA0 SHL SUB DUP8 AND MUL OR SWAP1 SSTORE PUSH1 0x3 DUP4 SWAP1 SSTORE PUSH1 0x4 PUSH2 0x10D DUP4 DUP3 PUSH2 0x1D3 JUMP JUMPDEST POP PUSH1 0x5 DUP1 SLOAD DUP3 SWAP2 SWAP1 PUSH1 0xFF NOT AND PUSH1 0x1 DUP4 DUP2 DUP2 GT ISZERO PUSH2 0x12C JUMPI PUSH2 0x12C PUSH2 0x3B6 JUMP JUMPDEST MUL OR SWAP1 SSTORE POP POP POP POP POP POP PUSH2 0x3CA JUMP JUMPDEST PUSH4 0x4E487B71 PUSH1 0xE0 SHL PUSH0 MSTORE PUSH1 0x41 PUSH1 0x4 MSTORE PUSH1 0x24 PUSH0 REVERT JUMPDEST PUSH1 0x1 DUP2 DUP2 SHR SWAP1 DUP3 AND DUP1 PUSH2 0x163 JUMPI PUSH1 0x7F DUP3 AND SWAP2 POP JUMPDEST PUSH1 0x20 DUP3 LT DUP2 SUB PUSH2 0x181 JUMPI PUSH4 0x4E487B71 PUSH1 0xE0 SHL PUSH0 MSTORE PUSH1 0x22 PUSH1 0x4 MSTORE PUSH1 0x24 PUSH0 REVERT JUMPDEST POP SWAP2 SWAP1 POP JUMP JUMPDEST PUSH1 0x1F DUP3 GT ISZERO PUSH2 0x1CE JUMPI DUP1 PUSH0 MSTORE PUSH1 0x20 PUSH0 KECCAK256 PUSH1 0x1F DUP5 ADD PUSH1 0x5 SHR DUP2 ADD PUSH1 0x20 DUP6 LT ISZERO PUSH2 0x1AC JUMPI POP DUP1 JUMPDEST PUSH1 0x1F DUP5 ADD PUSH1 0x5 SHR DUP3 ADD SWAP2 POP JUMPDEST DUP2 DUP2 LT ISZERO PUSH2 0x1CB JUMPI PUSH0 DUP2 SSTORE PUSH1 0x1 ADD PUSH2 0x1B8 JUMP JUMPDEST POP POP JUMPDEST POP POP POP JUMP JUMPDEST DUP2 MLOAD PUSH1 0x1 PUSH1 0x1 PUSH1 0x40 SHL SUB DUP2 GT ISZERO PUSH2 0x1EC JUMPI PUSH2 0x1EC PUSH2 0x13B JUMP JUMPDEST PUSH2 0x200 DUP2 PUSH2 0x1FA DUP5 SLOAD PUSH2 0x14F JUMP JUMPDEST DUP5 PUSH2 0x187 JUMP JUMPDEST PUSH1 0x20 PUSH1 0x1F DUP3 GT PUSH1 0x1 DUP2 EQ PUSH2 0x232 JUMPI PUSH0 DUP4 ISZERO PUSH2 0x21B JUMPI POP DUP5 DUP3 ADD MLOAD JUMPDEST PUSH0 NOT PUSH1 0x3 DUP6 SWAP1 SHL SHR NOT AND PUSH1 0x1 DUP5 SWAP1 SHL OR DUP5 SSTORE PUSH2 0x1CB JUMP JUMPDEST PUSH0 DUP5 DUP2 MSTORE PUSH1 0x20 DUP2 KECCAK256 PUSH1 0x1F NOT DUP6 AND SWAP2 JUMPDEST DUP3 DUP2 LT ISZERO PUSH2 0x261 JUMPI DUP8 DUP6 ADD MLOAD DUP3 SSTORE PUSH1 0x20 SWAP5 DUP6 ADD SWAP5 PUSH1 0x1 SWAP1 SWAP3 ADD SWAP2 ADD PUSH2 0x241 JUMP JUMPDEST POP DUP5 DUP3 LT ISZERO PUSH2 0x27E JUMPI DUP7 DUP5 ADD MLOAD PUSH0 NOT PUSH1 0x3 DUP8 SWAP1 SHL PUSH1 0xF8 AND SHR NOT AND DUP2 SSTORE JUMPDEST POP POP POP POP PUSH1 0x1 SWAP1 DUP2 SHL ADD SWAP1 SSTORE POP JUMP JUMPDEST DUP1 MLOAD PUSH1 0x1 PUSH1 0x1 PUSH1 0xA0 SHL SUB DUP2 AND DUP2 EQ PUSH2 0x2A3 JUMPI PUSH0 PUSH0 REVERT JUMPDEST SWAP2 SWAP1 POP JUMP JUMPDEST DUP1 MLOAD PUSH1 0x2 DUP2 LT PUSH2 0x2A3 JUMPI PUSH0 PUSH0 REVERT JUMPDEST PUSH0 PUSH0 PUSH0 PUSH0 PUSH0 PUSH1 0xA0 DUP7 DUP9 SUB SLT ISZERO PUSH2 0x2CA JUMPI PUSH0 PUSH0 REVERT JUMPDEST PUSH2 0x2D3 DUP7 PUSH2 0x28D JUMP JUMPDEST SWAP5 POP PUSH2 0x2E1 PUSH1 0x20 DUP8 ADD PUSH2 0x28D JUMP JUMPDEST PUSH1 0x40 DUP8 ADD MLOAD PUSH1 0x60 DUP9 ADD MLOAD SWAP2 SWAP6 POP SWAP4 POP PUSH1 0x1 PUSH1 0x1 PUSH1 0x40 SHL SUB DUP2 GT ISZERO PUSH2 0x303 JUMPI PUSH0 PUSH0 REVERT JUMPDEST DUP7 ADD PUSH1 0x1F DUP2 ADD DUP9 SGT PUSH2 0x313 JUMPI PUSH0 PUSH0 REVERT JUMPDEST DUP1 MLOAD PUSH1 0x1 PUSH1 0x1 PUSH1 0x40 SHL SUB DUP2 GT ISZERO PUSH2 0x32C JUMPI PUSH2 0x32C PUSH2 0x13B JUMP JUMPDEST PUSH1 0x40 MLOAD PUSH1 0x1F DUP3 ADD PUSH1 0x1F NOT SWAP1 DUP2 AND PUSH1 0x3F ADD AND DUP2 ADD PUSH1 0x1 PUSH1 0x1 PUSH1 0x40 SHL SUB DUP2 GT DUP3 DUP3 LT OR ISZERO PUSH2 0x35A JUMPI PUSH2 0x35A PUSH2 0x13B JUMP JUMPDEST PUSH1 0x40 MSTORE DUP2 DUP2 MSTORE DUP3 DUP3 ADD PUSH1 0x20 ADD DUP11 LT ISZERO PUSH2 0x371 JUMPI PUSH0 PUSH0 REVERT JUMPDEST PUSH0 JUMPDEST DUP3 DUP2 LT ISZERO PUSH2 0x38F JUMPI PUSH1 0x20 DUP2 DUP6 ADD DUP2 ADD MLOAD DUP4 DUP4 ADD DUP3 ADD MSTORE ADD PUSH2 0x373 JUMP JUMPDEST POP PUSH0 PUSH1 0x20 DUP4 DUP4 ADD ADD MSTORE DUP1 SWAP5 POP POP POP POP PUSH2 0x3AA PUSH1 0x80 DUP8 ADD PUSH2 0x2A8 JUMP JUMPDEST SWAP1 POP SWAP3 SWAP6 POP SWAP3 SWAP6 SWAP1 SWAP4 POP JUMP JUMPDEST PUSH4 0x4E487B71 PUSH1 0xE0 SHL PUSH0 MSTORE PUSH1 0x21 PUSH1 0x4 MSTORE PUSH1 0x24 PUSH0 REVERT JUMPDEST PUSH1 0x80 MLOAD PUSH2 0xF47 PUSH2 0x3E2 PUSH0 CODECOPY PUSH0 PUSH2 0x2B2 ADD MSTORE PUSH2 0xF47 PUSH0 RETURN INVALID PUSH1 0x80 PUSH1 0x40 MSTORE CALLVALUE DUP1 ISZERO PUSH2 0xF JUMPI PUSH0 PUSH0 REVERT JUMPDEST POP PUSH1 0x4 CALLDATASIZE LT PUSH2 0xA6 JUMPI PUSH0 CALLDATALOAD PUSH1 0xE0 SHR DUP1 PUSH4 0x70480275 GT PUSH2 0x6E JUMPI DUP1 PUSH4 0x70480275 EQ PUSH2 0x120 JUMPI DUP1 PUSH4 0x967E6E65 EQ PUSH2 0x133 JUMPI DUP1 PUSH4 0x98D5FDCA EQ PUSH2 0x13B JUMPI DUP1 PUSH4 0x9EB5A6EC EQ PUSH2 0x143 JUMPI DUP1 PUSH4 0xD5DCF127 EQ PUSH2 0x159 JUMPI DUP1 PUSH4 0xEB91D37E EQ PUSH2 0x16C JUMPI PUSH0 PUSH0 REVERT JUMPDEST DUP1 PUSH4 0xD8E6E2C EQ PUSH2 0xAA JUMPI DUP1 PUSH4 0x1619B928 EQ PUSH2 0xC0 JUMPI DUP1 PUSH4 0x1785F53C EQ PUSH2 0xD5 JUMPI DUP1 PUSH4 0x17D7DE7C EQ PUSH2 0xF8 JUMPI DUP1 PUSH4 0x492F8FB1 EQ PUSH2 0x10D JUMPI JUMPDEST PUSH0 PUSH0 REVERT JUMPDEST PUSH1 0x5 JUMPDEST PUSH1 0x40 MLOAD SWAP1 DUP2 MSTORE PUSH1 0x20 ADD JUMPDEST PUSH1 0x40 MLOAD DUP1 SWAP2 SUB SWAP1 RETURN JUMPDEST PUSH2 0xC8 PUSH2 0x1B7 JUMP JUMPDEST PUSH1 0x40 MLOAD PUSH2 0xB7 SWAP2 SWAP1 PUSH2 0xABC JUMP JUMPDEST PUSH2 0xE8 PUSH2 0xE3 CALLDATASIZE PUSH1 0x4 PUSH2 0xB62 JUMP JUMPDEST PUSH2 0x3A8 JUMP JUMPDEST PUSH1 0x40 MLOAD SWAP1 ISZERO ISZERO DUP2 MSTORE PUSH1 0x20 ADD PUSH2 0xB7 JUMP JUMPDEST PUSH2 0x100 PUSH2 0x444 JUMP JUMPDEST PUSH1 0x40 MLOAD PUSH2 0xB7 SWAP2 SWAP1 PUSH2 0xB8F JUMP JUMPDEST PUSH2 0xE8 PUSH2 0x11B CALLDATASIZE PUSH1 0x4 PUSH2 0xC0F JUMP JUMPDEST PUSH2 0x4D4 JUMP JUMPDEST PUSH2 0xE8 PUSH2 0x12E CALLDATASIZE PUSH1 0x4 PUSH2 0xB62 JUMP JUMPDEST PUSH2 0x51D JUMP JUMPDEST PUSH1 0x6 SLOAD PUSH2 0xAD JUMP JUMPDEST PUSH2 0xC8 PUSH2 0x60E JUMP JUMPDEST PUSH2 0x14B PUSH2 0x687 JUMP JUMPDEST PUSH1 0x40 MLOAD PUSH2 0xB7 SWAP3 SWAP2 SWAP1 PUSH2 0xCAD JUMP JUMPDEST PUSH2 0xE8 PUSH2 0x167 CALLDATASIZE PUSH1 0x4 PUSH2 0xCCD JUMP JUMPDEST PUSH2 0x721 JUMP JUMPDEST PUSH2 0x174 PUSH2 0x758 JUMP JUMPDEST PUSH1 0x40 MLOAD PUSH2 0xB7 SWAP2 SWAP1 DUP2 MLOAD PUSH1 0x7 SIGNEXTEND DUP2 MSTORE PUSH1 0x20 DUP1 DUP4 ADD MLOAD PUSH8 0xFFFFFFFFFFFFFFFF AND SWAP1 DUP3 ADD MSTORE PUSH1 0x40 DUP1 DUP4 ADD MLOAD PUSH1 0x3 SIGNEXTEND SWAP1 DUP3 ADD MSTORE PUSH1 0x60 SWAP2 DUP3 ADD MLOAD SWAP2 DUP2 ADD SWAP2 SWAP1 SWAP2 MSTORE PUSH1 0x80 ADD SWAP1 JUMP JUMPDEST PUSH1 0x40 DUP1 MLOAD PUSH2 0x100 DUP2 ADD DUP3 MSTORE PUSH1 0x60 DUP1 DUP3 MSTORE PUSH0 PUSH1 0x20 DUP4 ADD DUP2 SWAP1 MSTORE SWAP3 DUP3 ADD DUP4 SWAP1 MSTORE DUP1 DUP3 ADD DUP4 SWAP1 MSTORE PUSH1 0x80 DUP3 ADD MSTORE PUSH1 0xA0 DUP2 ADD DUP3 SWAP1 MSTORE PUSH1 0xC0 DUP2 ADD DUP3 SWAP1 MSTORE PUSH1 0xE0 DUP2 ADD SWAP2 SWAP1 SWAP2 MSTORE PUSH1 0x5 SLOAD PUSH1 0x3 SLOAD PUSH1 0x6 SLOAD PUSH1 0x40 MLOAD PUSH4 0x52571AF PUSH1 0xE5 SHL DUP2 MSTORE PUSH1 0x4 DUP2 ADD SWAP3 SWAP1 SWAP3 MSTORE PUSH1 0x24 DUP3 ADD MSTORE PUSH0 SWAP2 PUSH2 0x100 SWAP1 DIV PUSH1 0x1 PUSH1 0x1 PUSH1 0xA0 SHL SUB AND SWAP1 PUSH4 0xA4AE35E0 SWAP1 PUSH1 0x44 ADD JUMPDEST PUSH1 0x80 PUSH1 0x40 MLOAD DUP1 DUP4 SUB DUP2 DUP7 GAS STATICCALL ISZERO DUP1 ISZERO PUSH2 0x24F JUMPI RETURNDATASIZE PUSH0 PUSH0 RETURNDATACOPY RETURNDATASIZE PUSH0 REVERT JUMPDEST POP POP POP POP PUSH1 0x40 MLOAD RETURNDATASIZE PUSH1 0x1F NOT PUSH1 0x1F DUP3 ADD AND DUP3 ADD DUP1 PUSH1 0x40 MSTORE POP DUP2 ADD SWAP1 PUSH2 0x273 SWAP2 SWAP1 PUSH2 0xCE4 JUMP JUMPDEST PUSH1 0x40 DUP1 MLOAD PUSH2 0x140 DUP2 ADD DUP3 MSTORE PUSH1 0x4 PUSH2 0x100 DUP1 DUP4 ADD SWAP2 DUP3 MSTORE PUSH4 0xA0B2A89 PUSH1 0xE3 SHL PUSH2 0x120 DUP5 ADD MSTORE SWAP1 DUP3 MSTORE PUSH1 0x5 SLOAD SWAP1 DUP2 DIV PUSH1 0x1 PUSH1 0x1 PUSH1 0xA0 SHL SUB SWAP1 DUP2 AND PUSH1 0x20 DUP5 ADD MSTORE PUSH32 0x0 AND SWAP3 DUP3 ADD SWAP3 SWAP1 SWAP3 MSTORE SWAP2 SWAP3 POP PUSH1 0x60 DUP3 ADD SWAP1 PUSH1 0xFF AND PUSH1 0x1 DUP2 GT ISZERO PUSH2 0x2F5 JUMPI PUSH2 0x2F5 PUSH2 0xA88 JUMP JUMPDEST DUP2 MSTORE PUSH1 0x20 ADD PUSH1 0x4 DUP1 SLOAD PUSH2 0x307 SWAP1 PUSH2 0xD5B JUMP JUMPDEST DUP1 PUSH1 0x1F ADD PUSH1 0x20 DUP1 SWAP2 DIV MUL PUSH1 0x20 ADD PUSH1 0x40 MLOAD SWAP1 DUP2 ADD PUSH1 0x40 MSTORE DUP1 SWAP3 SWAP2 SWAP1 DUP2 DUP2 MSTORE PUSH1 0x20 ADD DUP3 DUP1 SLOAD PUSH2 0x333 SWAP1 PUSH2 0xD5B JUMP JUMPDEST DUP1 ISZERO PUSH2 0x37E JUMPI DUP1 PUSH1 0x1F LT PUSH2 0x355 JUMPI PUSH2 0x100 DUP1 DUP4 SLOAD DIV MUL DUP4 MSTORE SWAP2 PUSH1 0x20 ADD SWAP2 PUSH2 0x37E JUMP JUMPDEST DUP3 ADD SWAP2 SWAP1 PUSH0 MSTORE PUSH1 0x20 PUSH0 KECCAK256 SWAP1 JUMPDEST DUP2 SLOAD DUP2 MSTORE SWAP1 PUSH1 0x1 ADD SWAP1 PUSH1 0x20 ADD DUP1 DUP4 GT PUSH2 0x361 JUMPI DUP3 SWAP1 SUB PUSH1 0x1F AND DUP3 ADD SWAP2 JUMPDEST POP POP POP POP POP DUP2 MSTORE PUSH1 0x20 ADD DUP3 PUSH0 ADD MLOAD PUSH1 0x7 SIGNEXTEND DUP2 MSTORE PUSH1 0x20 ADD DUP3 PUSH1 0x60 ADD MLOAD DUP2 MSTORE PUSH1 0x20 ADD TIMESTAMP DUP2 MSTORE POP SWAP2 POP POP SWAP1 JUMP JUMPDEST CALLER PUSH0 SWAP1 DUP2 MSTORE PUSH1 0x1 PUSH1 0x20 MSTORE PUSH1 0x40 DUP2 KECCAK256 SLOAD PUSH1 0xFF AND PUSH2 0x3DF JUMPI PUSH1 0x40 MLOAD PUSH3 0x461BCD PUSH1 0xE5 SHL DUP2 MSTORE PUSH1 0x4 ADD PUSH2 0x3D6 SWAP1 PUSH2 0xD93 JUMP JUMPDEST PUSH1 0x40 MLOAD DUP1 SWAP2 SUB SWAP1 REVERT JUMPDEST PUSH1 0x1 PUSH1 0x1 PUSH1 0xA0 SHL SUB DUP3 AND PUSH0 SWAP1 DUP2 MSTORE PUSH1 0x1 PUSH1 0x20 MSTORE PUSH1 0x40 SWAP1 KECCAK256 SLOAD PUSH1 0xFF AND PUSH2 0x435 JUMPI PUSH1 0x40 MLOAD PUSH3 0x461BCD PUSH1 0xE5 SHL DUP2 MSTORE PUSH1 0x20 PUSH1 0x4 DUP3 ADD MSTORE PUSH1 0xC PUSH1 0x24 DUP3 ADD MSTORE PUSH12 0x34B9903737BA1030B236B4B7 PUSH1 0xA1 SHL PUSH1 0x44 DUP3 ADD MSTORE PUSH1 0x64 ADD PUSH2 0x3D6 JUMP JUMPDEST PUSH2 0x43E DUP3 PUSH2 0x7FB JUMP JUMPDEST SWAP3 SWAP2 POP POP JUMP JUMPDEST PUSH1 0x60 PUSH1 0x2 DUP1 SLOAD PUSH2 0x453 SWAP1 PUSH2 0xD5B JUMP JUMPDEST DUP1 PUSH1 0x1F ADD PUSH1 0x20 DUP1 SWAP2 DIV MUL PUSH1 0x20 ADD PUSH1 0x40 MLOAD SWAP1 DUP2 ADD PUSH1 0x40 MSTORE DUP1 SWAP3 SWAP2 SWAP1 DUP2 DUP2 MSTORE PUSH1 0x20 ADD DUP3 DUP1 SLOAD PUSH2 0x47F SWAP1 PUSH2 0xD5B JUMP JUMPDEST DUP1 ISZERO PUSH2 0x4CA JUMPI DUP1 PUSH1 0x1F LT PUSH2 0x4A1 JUMPI PUSH2 0x100 DUP1 DUP4 SLOAD DIV MUL DUP4 MSTORE SWAP2 PUSH1 0x20 ADD SWAP2 PUSH2 0x4CA JUMP JUMPDEST DUP3 ADD SWAP2 SWAP1 PUSH0 MSTORE PUSH1 0x20 PUSH0 KECCAK256 SWAP1 JUMPDEST DUP2 SLOAD DUP2 MSTORE SWAP1 PUSH1 0x1 ADD SWAP1 PUSH1 0x20 ADD DUP1 DUP4 GT PUSH2 0x4AD JUMPI DUP3 SWAP1 SUB PUSH1 0x1F AND DUP3 ADD SWAP2 JUMPDEST POP POP POP POP POP SWAP1 POP SWAP1 JUMP JUMPDEST CALLER PUSH0 SWAP1 DUP2 MSTORE PUSH1 0x1 PUSH1 0x20 MSTORE PUSH1 0x40 DUP2 KECCAK256 SLOAD PUSH1 0xFF AND PUSH2 0x502 JUMPI PUSH1 0x40 MLOAD PUSH3 0x461BCD PUSH1 0xE5 SHL DUP2 MSTORE PUSH1 0x4 ADD PUSH2 0x3D6 SWAP1 PUSH2 0xD93 JUMP JUMPDEST PUSH1 0x3 DUP4 SWAP1 SSTORE PUSH1 0x4 PUSH2 0x513 DUP4 DUP3 PUSH2 0xE03 JUMP JUMPDEST POP PUSH1 0x1 SWAP4 SWAP3 POP POP POP JUMP JUMPDEST CALLER PUSH0 SWAP1 DUP2 MSTORE PUSH1 0x1 PUSH1 0x20 MSTORE PUSH1 0x40 DUP2 KECCAK256 SLOAD PUSH1 0xFF AND PUSH2 0x54B JUMPI PUSH1 0x40 MLOAD PUSH3 0x461BCD PUSH1 0xE5 SHL DUP2 MSTORE PUSH1 0x4 ADD PUSH2 0x3D6 SWAP1 PUSH2 0xD93 JUMP JUMPDEST PUSH1 0x1 PUSH1 0x1 PUSH1 0xA0 SHL SUB DUP3 AND PUSH0 SWAP1 DUP2 MSTORE PUSH1 0x1 PUSH1 0x20 MSTORE PUSH1 0x40 SWAP1 KECCAK256 SLOAD PUSH1 0xFF AND ISZERO PUSH2 0x5A6 JUMPI PUSH1 0x40 MLOAD PUSH3 0x461BCD PUSH1 0xE5 SHL DUP2 MSTORE PUSH1 0x20 PUSH1 0x4 DUP3 ADD MSTORE PUSH1 0x10 PUSH1 0x24 DUP3 ADD MSTORE PUSH16 0x34B99030B63932B0B23C9030B236B4B7 PUSH1 0x81 SHL PUSH1 0x44 DUP3 ADD MSTORE PUSH1 0x64 ADD PUSH2 0x3D6 JUMP JUMPDEST PUSH1 0x1 PUSH1 0x1 PUSH1 0xA0 SHL SUB DUP3 AND PUSH0 DUP2 DUP2 MSTORE PUSH1 0x1 PUSH1 0x20 DUP2 SWAP1 MSTORE PUSH1 0x40 DUP3 KECCAK256 DUP1 SLOAD PUSH1 0xFF NOT AND DUP3 OR SWAP1 SSTORE DUP2 SLOAD DUP1 DUP3 ADD DUP4 SSTORE SWAP2 DUP1 MSTORE PUSH32 0x290DECD9548B62A8D60345A988386FC84BA6BC95484008F6362F93160EF3E563 SWAP1 SWAP2 ADD DUP1 SLOAD PUSH1 0x1 PUSH1 0x1 PUSH1 0xA0 SHL SUB NOT AND SWAP1 SWAP3 OR SWAP1 SWAP2 SSTORE PUSH2 0x43E JUMP JUMPDEST PUSH1 0x40 DUP1 MLOAD PUSH2 0x100 DUP2 ADD DUP3 MSTORE PUSH1 0x60 DUP1 DUP3 MSTORE PUSH0 PUSH1 0x20 DUP4 ADD DUP2 SWAP1 MSTORE SWAP3 DUP3 ADD DUP4 SWAP1 MSTORE DUP1 DUP3 ADD DUP4 SWAP1 MSTORE PUSH1 0x80 DUP3 ADD MSTORE PUSH1 0xA0 DUP2 ADD DUP3 SWAP1 MSTORE PUSH1 0xC0 DUP2 ADD DUP3 SWAP1 MSTORE PUSH1 0xE0 DUP2 ADD SWAP2 SWAP1 SWAP2 MSTORE PUSH1 0x5 SLOAD PUSH1 0x3 SLOAD PUSH1 0x40 MLOAD PUSH4 0x96834AD3 PUSH1 0xE0 SHL DUP2 MSTORE PUSH1 0x4 DUP2 ADD SWAP2 SWAP1 SWAP2 MSTORE PUSH0 SWAP2 PUSH2 0x100 SWAP1 DIV PUSH1 0x1 PUSH1 0x1 PUSH1 0xA0 SHL SUB AND SWAP1 PUSH4 0x96834AD3 SWAP1 PUSH1 0x24 ADD PUSH2 0x234 JUMP JUMPDEST PUSH0 PUSH1 0x60 PUSH1 0x3 SLOAD PUSH1 0x4 DUP1 DUP1 SLOAD PUSH2 0x69B SWAP1 PUSH2 0xD5B JUMP JUMPDEST DUP1 PUSH1 0x1F ADD PUSH1 0x20 DUP1 SWAP2 DIV MUL PUSH1 0x20 ADD PUSH1 0x40 MLOAD SWAP1 DUP2 ADD PUSH1 0x40 MSTORE DUP1 SWAP3 SWAP2 SWAP1 DUP2 DUP2 MSTORE PUSH1 0x20 ADD DUP3 DUP1 SLOAD PUSH2 0x6C7 SWAP1 PUSH2 0xD5B JUMP JUMPDEST DUP1 ISZERO PUSH2 0x712 JUMPI DUP1 PUSH1 0x1F LT PUSH2 0x6E9 JUMPI PUSH2 0x100 DUP1 DUP4 SLOAD DIV MUL DUP4 MSTORE SWAP2 PUSH1 0x20 ADD SWAP2 PUSH2 0x712 JUMP JUMPDEST DUP3 ADD SWAP2 SWAP1 PUSH0 MSTORE PUSH1 0x20 PUSH0 KECCAK256 SWAP1 JUMPDEST DUP2 SLOAD DUP2 MSTORE SWAP1 PUSH1 0x1 ADD SWAP1 PUSH1 0x20 ADD DUP1 DUP4 GT PUSH2 0x6F5 JUMPI DUP3 SWAP1 SUB PUSH1 0x1F AND DUP3 ADD SWAP2 JUMPDEST POP POP POP POP POP SWAP1 POP SWAP2 POP SWAP2 POP SWAP1 SWAP2 JUMP JUMPDEST CALLER PUSH0 SWAP1 DUP2 MSTORE PUSH1 0x1 PUSH1 0x20 MSTORE PUSH1 0x40 DUP2 KECCAK256 SLOAD PUSH1 0xFF AND PUSH2 0x74F JUMPI PUSH1 0x40 MLOAD PUSH3 0x461BCD PUSH1 0xE5 SHL DUP2 MSTORE PUSH1 0x4 ADD PUSH2 0x3D6 SWAP1 PUSH2 0xD93 JUMP JUMPDEST POP PUSH1 0x6 SSTORE PUSH1 0x1 SWAP1 JUMP JUMPDEST PUSH1 0x40 DUP1 MLOAD PUSH1 0x80 DUP2 ADD DUP3 MSTORE PUSH0 DUP1 DUP3 MSTORE PUSH1 0x20 DUP3 ADD DUP2 SWAP1 MSTORE SWAP2 DUP2 ADD DUP3 SWAP1 MSTORE PUSH1 0x60 DUP2 ADD SWAP2 SWAP1 SWAP2 MSTORE PUSH1 0x5 SLOAD PUSH1 0x3 SLOAD PUSH1 0x6 SLOAD PUSH1 0x40 MLOAD PUSH4 0x52571AF PUSH1 0xE5 SHL DUP2 MSTORE PUSH1 0x4 DUP2 ADD SWAP3 SWAP1 SWAP3 MSTORE PUSH1 0x24 DUP3 ADD MSTORE PUSH2 0x100 SWAP1 SWAP2 DIV PUSH1 0x1 PUSH1 0x1 PUSH1 0xA0 SHL SUB AND SWAP1 PUSH4 0xA4AE35E0 SWAP1 PUSH1 0x44 ADD PUSH1 0x80 PUSH1 0x40 MLOAD DUP1 DUP4 SUB DUP2 DUP7 GAS STATICCALL ISZERO DUP1 ISZERO PUSH2 0x7D2 JUMPI RETURNDATASIZE PUSH0 PUSH0 RETURNDATACOPY RETURNDATASIZE PUSH0 REVERT JUMPDEST POP POP POP POP PUSH1 0x40 MLOAD RETURNDATASIZE PUSH1 0x1F NOT PUSH1 0x1F DUP3 ADD AND DUP3 ADD DUP1 PUSH1 0x40 MSTORE POP DUP2 ADD SWAP1 PUSH2 0x7F6 SWAP2 SWAP1 PUSH2 0xCE4 JUMP JUMPDEST SWAP1 POP SWAP1 JUMP JUMPDEST PUSH0 DUP1 SLOAD PUSH1 0x1 LT PUSH2 0x843 JUMPI PUSH1 0x40 MLOAD PUSH3 0x461BCD PUSH1 0xE5 SHL DUP2 MSTORE PUSH1 0x20 PUSH1 0x4 DUP3 ADD MSTORE PUSH1 0x13 PUSH1 0x24 DUP3 ADD MSTORE PUSH19 0x696E73756666696369656E742061646D696E73 PUSH1 0x68 SHL PUSH1 0x44 DUP3 ADD MSTORE PUSH1 0x64 ADD PUSH2 0x3D6 JUMP JUMPDEST PUSH1 0x1 PUSH1 0x1 PUSH1 0xA0 SHL SUB DUP3 AND PUSH0 SWAP1 DUP2 MSTORE PUSH1 0x1 PUSH1 0x20 SWAP1 DUP2 MSTORE PUSH1 0x40 DUP1 DUP4 KECCAK256 DUP1 SLOAD PUSH1 0xFF NOT AND SWAP1 SSTORE DUP3 SLOAD DUP2 MLOAD DUP2 DUP5 MUL DUP2 ADD DUP5 ADD SWAP1 SWAP3 MSTORE DUP1 DUP3 MSTORE PUSH2 0x8BE SWAP4 SWAP2 SWAP3 DUP4 ADD DUP3 DUP3 DUP1 ISZERO PUSH2 0x8B3 JUMPI PUSH1 0x20 MUL DUP3 ADD SWAP2 SWAP1 PUSH0 MSTORE PUSH1 0x20 PUSH0 KECCAK256 SWAP1 JUMPDEST DUP2 SLOAD PUSH1 0x1 PUSH1 0x1 PUSH1 0xA0 SHL SUB AND DUP2 MSTORE PUSH1 0x1 SWAP1 SWAP2 ADD SWAP1 PUSH1 0x20 ADD DUP1 DUP4 GT PUSH2 0x895 JUMPI JUMPDEST POP POP POP POP POP DUP4 PUSH2 0x8DA JUMP JUMPDEST DUP1 MLOAD PUSH2 0x8D1 SWAP2 PUSH0 SWAP2 PUSH1 0x20 SWAP1 SWAP2 ADD SWAP1 PUSH2 0x9CE JUMP JUMPDEST POP PUSH1 0x1 SWAP3 SWAP2 POP POP JUMP JUMPDEST PUSH1 0x60 PUSH1 0x1 DUP4 MLOAD PUSH2 0x8EA SWAP2 SWAP1 PUSH2 0xED2 JUMP JUMPDEST PUSH8 0xFFFFFFFFFFFFFFFF DUP2 GT ISZERO PUSH2 0x902 JUMPI PUSH2 0x902 PUSH2 0xBA1 JUMP JUMPDEST PUSH1 0x40 MLOAD SWAP1 DUP1 DUP3 MSTORE DUP1 PUSH1 0x20 MUL PUSH1 0x20 ADD DUP3 ADD PUSH1 0x40 MSTORE DUP1 ISZERO PUSH2 0x92B JUMPI DUP2 PUSH1 0x20 ADD PUSH1 0x20 DUP3 MUL DUP1 CALLDATASIZE DUP4 CALLDATACOPY ADD SWAP1 POP JUMPDEST POP SWAP1 POP PUSH0 DUP1 JUMPDEST DUP5 MLOAD DUP2 LT ISZERO PUSH2 0x9C6 JUMPI DUP4 PUSH1 0x1 PUSH1 0x1 PUSH1 0xA0 SHL SUB AND DUP6 DUP3 DUP2 MLOAD DUP2 LT PUSH2 0x956 JUMPI PUSH2 0x956 PUSH2 0xEE5 JUMP JUMPDEST PUSH1 0x20 MUL PUSH1 0x20 ADD ADD MLOAD PUSH1 0x1 PUSH1 0x1 PUSH1 0xA0 SHL SUB AND EQ PUSH2 0x9BE JUMPI DUP5 DUP2 DUP2 MLOAD DUP2 LT PUSH2 0x97E JUMPI PUSH2 0x97E PUSH2 0xEE5 JUMP JUMPDEST PUSH1 0x20 MUL PUSH1 0x20 ADD ADD MLOAD DUP4 DUP4 DUP2 MLOAD DUP2 LT PUSH2 0x998 JUMPI PUSH2 0x998 PUSH2 0xEE5 JUMP JUMPDEST PUSH1 0x1 PUSH1 0x1 PUSH1 0xA0 SHL SUB SWAP1 SWAP3 AND PUSH1 0x20 SWAP3 DUP4 MUL SWAP2 SWAP1 SWAP2 ADD SWAP1 SWAP2 ADD MSTORE DUP2 PUSH2 0x9BA DUP2 PUSH2 0xEF9 JUMP JUMPDEST SWAP3 POP POP JUMPDEST PUSH1 0x1 ADD PUSH2 0x931 JUMP JUMPDEST POP POP SWAP3 SWAP2 POP POP JUMP JUMPDEST DUP3 DUP1 SLOAD DUP3 DUP3 SSTORE SWAP1 PUSH0 MSTORE PUSH1 0x20 PUSH0 KECCAK256 SWAP1 DUP2 ADD SWAP3 DUP3 ISZERO PUSH2 0xA21 JUMPI SWAP2 PUSH1 0x20 MUL DUP3 ADD JUMPDEST DUP3 DUP2 GT ISZERO PUSH2 0xA21 JUMPI DUP3 MLOAD DUP3 SLOAD PUSH1 0x1 PUSH1 0x1 PUSH1 0xA0 SHL SUB NOT AND PUSH1 0x1 PUSH1 0x1 PUSH1 0xA0 SHL SUB SWAP1 SWAP2 AND OR DUP3 SSTORE PUSH1 0x20 SWAP1 SWAP3 ADD SWAP2 PUSH1 0x1 SWAP1 SWAP2 ADD SWAP1 PUSH2 0x9EC JUMP JUMPDEST POP PUSH2 0xA2D SWAP3 SWAP2 POP PUSH2 0xA31 JUMP JUMPDEST POP SWAP1 JUMP JUMPDEST JUMPDEST DUP1 DUP3 GT ISZERO PUSH2 0xA2D JUMPI PUSH0 DUP2 SSTORE PUSH1 0x1 ADD PUSH2 0xA32 JUMP JUMPDEST PUSH0 DUP2 MLOAD DUP1 DUP5 MSTORE PUSH0 JUMPDEST DUP2 DUP2 LT ISZERO PUSH2 0xA69 JUMPI PUSH1 0x20 DUP2 DUP6 ADD DUP2 ADD MLOAD DUP7 DUP4 ADD DUP3 ADD MSTORE ADD PUSH2 0xA4D JUMP JUMPDEST POP PUSH0 PUSH1 0x20 DUP3 DUP7 ADD ADD MSTORE PUSH1 0x20 PUSH1 0x1F NOT PUSH1 0x1F DUP4 ADD AND DUP6 ADD ADD SWAP2 POP POP SWAP3 SWAP2 POP POP JUMP JUMPDEST PUSH4 0x4E487B71 PUSH1 0xE0 SHL PUSH0 MSTORE PUSH1 0x21 PUSH1 0x4 MSTORE PUSH1 0x24 PUSH0 REVERT JUMPDEST PUSH1 0x2 DUP2 LT PUSH2 0xAB8 JUMPI PUSH4 0x4E487B71 PUSH1 0xE0 SHL PUSH0 MSTORE PUSH1 0x21 PUSH1 0x4 MSTORE PUSH1 0x24 PUSH0 REVERT JUMPDEST SWAP1 MSTORE JUMP JUMPDEST PUSH1 0x20 DUP2 MSTORE PUSH0 DUP3 MLOAD PUSH2 0x100 PUSH1 0x20 DUP5 ADD MSTORE PUSH2 0xAD9 PUSH2 0x120 DUP5 ADD DUP3 PUSH2 0xA45 JUMP JUMPDEST SWAP1 POP PUSH1 0x1 DUP1 PUSH1 0xA0 SHL SUB PUSH1 0x20 DUP6 ADD MLOAD AND PUSH1 0x40 DUP5 ADD MSTORE PUSH1 0x40 DUP5 ADD MLOAD PUSH2 0xB07 PUSH1 0x60 DUP6 ADD DUP3 PUSH1 0x1 PUSH1 0x1 PUSH1 0xA0 SHL SUB AND SWAP1 MSTORE JUMP JUMPDEST POP PUSH1 0x60 DUP5 ADD MLOAD PUSH2 0xB1A PUSH1 0x80 DUP6 ADD DUP3 PUSH2 0xA9C JUMP JUMPDEST POP PUSH1 0x80 DUP5 ADD MLOAD DUP4 DUP3 SUB PUSH1 0x1F NOT ADD PUSH1 0xA0 DUP6 ADD MSTORE PUSH2 0xB36 DUP3 DUP3 PUSH2 0xA45 JUMP JUMPDEST SWAP2 POP POP PUSH1 0xA0 DUP5 ADD MLOAD PUSH1 0xC0 DUP5 ADD MSTORE PUSH1 0xC0 DUP5 ADD MLOAD PUSH1 0xE0 DUP5 ADD MSTORE PUSH1 0xE0 DUP5 ADD MLOAD PUSH2 0x100 DUP5 ADD MSTORE DUP1 SWAP2 POP POP SWAP3 SWAP2 POP POP JUMP JUMPDEST PUSH0 PUSH1 0x20 DUP3 DUP5 SUB SLT ISZERO PUSH2 0xB72 JUMPI PUSH0 PUSH0 REVERT JUMPDEST DUP2 CALLDATALOAD PUSH1 0x1 PUSH1 0x1 PUSH1 0xA0 SHL SUB DUP2 AND DUP2 EQ PUSH2 0xB88 JUMPI PUSH0 PUSH0 REVERT JUMPDEST SWAP4 SWAP3 POP POP POP JUMP JUMPDEST PUSH1 0x20 DUP2 MSTORE PUSH0 PUSH2 0xB88 PUSH1 0x20 DUP4 ADD DUP5 PUSH2 0xA45 JUMP JUMPDEST PUSH4 0x4E487B71 PUSH1 0xE0 SHL PUSH0 MSTORE PUSH1 0x41 PUSH1 0x4 MSTORE PUSH1 0x24 PUSH0 REVERT JUMPDEST PUSH1 0x40 MLOAD PUSH1 0x80 DUP2 ADD PUSH8 0xFFFFFFFFFFFFFFFF DUP2 GT DUP3 DUP3 LT OR ISZERO PUSH2 0xBD8 JUMPI PUSH2 0xBD8 PUSH2 0xBA1 JUMP JUMPDEST PUSH1 0x40 MSTORE SWAP1 JUMP JUMPDEST PUSH1 0x40 MLOAD PUSH1 0x1F DUP3 ADD PUSH1 0x1F NOT AND DUP2 ADD PUSH8 0xFFFFFFFFFFFFFFFF DUP2 GT DUP3 DUP3 LT OR ISZERO PUSH2 0xC07 JUMPI PUSH2 0xC07 PUSH2 0xBA1 JUMP JUMPDEST PUSH1 0x40 MSTORE SWAP2 SWAP1 POP JUMP JUMPDEST PUSH0 PUSH0 PUSH1 0x40 DUP4 DUP6 SUB SLT ISZERO PUSH2 0xC20 JUMPI PUSH0 PUSH0 REVERT JUMPDEST DUP3 CALLDATALOAD SWAP2 POP PUSH1 0x20 DUP4 ADD CALLDATALOAD PUSH8 0xFFFFFFFFFFFFFFFF DUP2 GT ISZERO PUSH2 0xC3D JUMPI PUSH0 PUSH0 REVERT JUMPDEST DUP4 ADD PUSH1 0x1F DUP2 ADD DUP6 SGT PUSH2 0xC4D JUMPI PUSH0 PUSH0 REVERT JUMPDEST DUP1 CALLDATALOAD PUSH8 0xFFFFFFFFFFFFFFFF DUP2 GT ISZERO PUSH2 0xC67 JUMPI PUSH2 0xC67 PUSH2 0xBA1 JUMP JUMPDEST PUSH2 0xC7A PUSH1 0x1F DUP3 ADD PUSH1 0x1F NOT AND PUSH1 0x20 ADD PUSH2 0xBDE JUMP JUMPDEST DUP2 DUP2 MSTORE DUP7 PUSH1 0x20 DUP4 DUP6 ADD ADD GT ISZERO PUSH2 0xC8E JUMPI PUSH0 PUSH0 REVERT JUMPDEST DUP2 PUSH1 0x20 DUP5 ADD PUSH1 0x20 DUP4 ADD CALLDATACOPY PUSH0 PUSH1 0x20 DUP4 DUP4 ADD ADD MSTORE DUP1 SWAP4 POP POP POP POP SWAP3 POP SWAP3 SWAP1 POP JUMP JUMPDEST DUP3 DUP2 MSTORE PUSH1 0x40 PUSH1 0x20 DUP3 ADD MSTORE PUSH0 PUSH2 0xCC5 PUSH1 0x40 DUP4 ADD DUP5 PUSH2 0xA45 JUMP JUMPDEST SWAP5 SWAP4 POP POP POP POP JUMP JUMPDEST PUSH0 PUSH1 0x20 DUP3 DUP5 SUB SLT ISZERO PUSH2 0xCDD JUMPI PUSH0 PUSH0 REVERT JUMPDEST POP CALLDATALOAD SWAP2 SWAP1 POP JUMP JUMPDEST PUSH0 PUSH1 0x80 DUP3 DUP5 SUB SLT DUP1 ISZERO PUSH2 0xCF5 JUMPI PUSH0 PUSH0 REVERT JUMPDEST POP PUSH2 0xCFE PUSH2 0xBB5 JUMP JUMPDEST DUP3 MLOAD DUP1 PUSH1 0x7 SIGNEXTEND DUP2 EQ PUSH2 0xD0E JUMPI PUSH0 PUSH0 REVERT JUMPDEST DUP2 MSTORE PUSH1 0x20 DUP4 ADD MLOAD PUSH8 0xFFFFFFFFFFFFFFFF DUP2 AND DUP2 EQ PUSH2 0xD2A JUMPI PUSH0 PUSH0 REVERT JUMPDEST PUSH1 0x20 DUP3 ADD MSTORE PUSH1 0x40 DUP4 ADD MLOAD PUSH1 0x3 DUP2 SWAP1 SIGNEXTEND DUP2 EQ PUSH2 0xD43 JUMPI PUSH0 PUSH0 REVERT JUMPDEST PUSH1 0x40 DUP3 ADD MSTORE PUSH1 0x60 SWAP3 DUP4 ADD MLOAD SWAP3 DUP2 ADD SWAP3 SWAP1 SWAP3 MSTORE POP SWAP2 SWAP1 POP JUMP JUMPDEST PUSH1 0x1 DUP2 DUP2 SHR SWAP1 DUP3 AND DUP1 PUSH2 0xD6F JUMPI PUSH1 0x7F DUP3 AND SWAP2 POP JUMPDEST PUSH1 0x20 DUP3 LT DUP2 SUB PUSH2 0xD8D JUMPI PUSH4 0x4E487B71 PUSH1 0xE0 SHL PUSH0 MSTORE PUSH1 0x22 PUSH1 0x4 MSTORE PUSH1 0x24 PUSH0 REVERT JUMPDEST POP SWAP2 SWAP1 POP JUMP JUMPDEST PUSH1 0x20 DUP1 DUP3 MSTORE PUSH1 0xA SWAP1 DUP3 ADD MSTORE PUSH10 0x61646D696E206F6E6C79 PUSH1 0xB0 SHL PUSH1 0x40 DUP3 ADD MSTORE PUSH1 0x60 ADD SWAP1 JUMP JUMPDEST PUSH1 0x1F DUP3 GT ISZERO PUSH2 0xDFE JUMPI DUP1 PUSH0 MSTORE PUSH1 0x20 PUSH0 KECCAK256 PUSH1 0x1F DUP5 ADD PUSH1 0x5 SHR DUP2 ADD PUSH1 0x20 DUP6 LT ISZERO PUSH2 0xDDC JUMPI POP DUP1 JUMPDEST PUSH1 0x1F DUP5 ADD PUSH1 0x5 SHR DUP3 ADD SWAP2 POP JUMPDEST DUP2 DUP2 LT ISZERO PUSH2 0xDFB JUMPI PUSH0 DUP2 SSTORE PUSH1 0x1 ADD PUSH2 0xDE8 JUMP JUMPDEST POP POP JUMPDEST POP POP POP JUMP JUMPDEST DUP2 MLOAD PUSH8 0xFFFFFFFFFFFFFFFF DUP2 GT ISZERO PUSH2 0xE1D JUMPI PUSH2 0xE1D PUSH2 0xBA1 JUMP JUMPDEST PUSH2 0xE31 DUP2 PUSH2 0xE2B DUP5 SLOAD PUSH2 0xD5B JUMP JUMPDEST DUP5 PUSH2 0xDB7 JUMP JUMPDEST PUSH1 0x20 PUSH1 0x1F DUP3 GT PUSH1 0x1 DUP2 EQ PUSH2 0xE63 JUMPI PUSH0 DUP4 ISZERO PUSH2 0xE4C JUMPI POP DUP5 DUP3 ADD MLOAD JUMPDEST PUSH0 NOT PUSH1 0x3 DUP6 SWAP1 SHL SHR NOT AND PUSH1 0x1 DUP5 SWAP1 SHL OR DUP5 SSTORE PUSH2 0xDFB JUMP JUMPDEST PUSH0 DUP5 DUP2 MSTORE PUSH1 0x20 DUP2 KECCAK256 PUSH1 0x1F NOT DUP6 AND SWAP2 JUMPDEST DUP3 DUP2 LT ISZERO PUSH2 0xE92 JUMPI DUP8 DUP6 ADD MLOAD DUP3 SSTORE PUSH1 0x20 SWAP5 DUP6 ADD SWAP5 PUSH1 0x1 SWAP1 SWAP3 ADD SWAP2 ADD PUSH2 0xE72 JUMP JUMPDEST POP DUP5 DUP3 LT ISZERO PUSH2 0xEAF JUMPI DUP7 DUP5 ADD MLOAD PUSH0 NOT PUSH1 0x3 DUP8 SWAP1 SHL PUSH1 0xF8 AND SHR NOT AND DUP2 SSTORE JUMPDEST POP POP POP POP PUSH1 0x1 SWAP1 DUP2 SHL ADD SWAP1 SSTORE POP JUMP JUMPDEST PUSH4 0x4E487B71 PUSH1 0xE0 SHL PUSH0 MSTORE PUSH1 0x11 PUSH1 0x4 MSTORE PUSH1 0x24 PUSH0 REVERT JUMPDEST DUP2 DUP2 SUB DUP2 DUP2 GT ISZERO PUSH2 0x43E JUMPI PUSH2 0x43E PUSH2 0xEBE JUMP JUMPDEST PUSH4 0x4E487B71 PUSH1 0xE0 SHL PUSH0 MSTORE PUSH1 0x32 PUSH1 0x4 MSTORE PUSH1 0x24 PUSH0 REVERT JUMPDEST PUSH0 PUSH1 0x1 DUP3 ADD PUSH2 0xF0A JUMPI PUSH2 0xF0A PUSH2 0xEBE JUMP JUMPDEST POP PUSH1 0x1 ADD SWAP1 JUMP INVALID LOG2 PUSH5 0x6970667358 0x22 SLT KECCAK256 0xA8 PUSH15 0x6A5D5350058C8E1D5F24A439637D0E STATICCALL 0x27 JUMPDEST 0x4C CHAINID PUSH13 0x17A0863169A680D7464736F6C PUSH4 0x4300081B STOP CALLER "
        },
        "methodIdentifiers": {
          "addAdmin(address)": "70480275",
          "getAge()": "967e6e65",
          "getCurrentPrice()": "eb91d37e",
          "getName()": "17d7de7c",
          "getPrice()": "98d5fdca",
          "getPriceAtAge()": "1619b928",
          "getPriceId()": "9eb5a6ec",
          "getVersion()": "0d8e6e2c",
          "removeAdmin(address)": "1785f53c",
          "setAge(uint256)": "d5dcf127",
          "setPriceId(bytes32,string)": "492f8fb1"
        }
      }
    }
  }
}