{
  "_format": "hh-sol-artifact-1",
  "contractName": "EtherlinkPythMonitor",
  "sourceName": "contracts/EtherlinkPythMonitor.sol",
  "abi": [
    {
      "inputs": [
        {
          "internalType": "address",
          "name": "_admin",
          "type": "address"
        },
        {
          "internalType": "address",
          "name": "_pyth",
          "type": "address"
        },
        {
          "internalType": "bytes32",
          "name": "_priceId",
          "type": "bytes32"
        },
        {
          "internalType": "string",
          "name": "_symbol",
          "type": "string"
        },
        {
          "internalType": "enum Network",
          "name": "_network",
          "type": "uint8"
        }
      ],
      "stateMutability": "nonpayable",
      "type": "constructor"
    },
    {
      "inputs": [
        {
          "internalType": "address",
          "name": "_admin",
          "type": "address"
        }
      ],
      "name": "addAdmin",
      "outputs": [
        {
          "internalType": "bool",
          "name": "_added",
          "type": "bool"
        }
      ],
      "stateMutability": "nonpayable",
      "type": "function"
    },
    {
      "inputs": [],
      "name": "getAge",
      "outputs": [
        {
          "internalType": "uint256",
          "name": "_age",
          "type": "uint256"
        }
      ],
      "stateMutability": "view",
      "type": "function"
    },
    {
      "inputs": [],
      "name": "getCurrentPrice",
      "outputs": [
        {
          "components": [
            {
              "internalType": "int64",
              "name": "price",
              "type": "int64"
            },
            {
              "internalType": "uint64",
              "name": "conf",
              "type": "uint64"
            },
            {
              "internalType": "int32",
              "name": "expo",
              "type": "int32"
            },
            {
              "internalType": "uint256",
              "name": "publishTime",
              "type": "uint256"
            }
          ],
          "internalType": "struct PythStructs.Price",
          "name": "_price",
          "type": "tuple"
        }
      ],
      "stateMutability": "view",
      "type": "function"
    },
    {
      "inputs": [],
      "name": "getName",
      "outputs": [
        {
          "internalType": "string",
          "name": "_name",
          "type": "string"
        }
      ],
      "stateMutability": "view",
      "type": "function"
    },
    {
      "inputs": [],
      "name": "getPrice",
      "outputs": [
        {
          "components": [
            {
              "internalType": "string",
              "name": "provider",
              "type": "string"
            },
            {
              "internalType": "address",
              "name": "source",
              "type": "address"
            },
            {
              "internalType": "address",
              "name": "monitor",
              "type": "address"
            },
            {
              "internalType": "enum Network",
              "name": "network",
              "type": "uint8"
            },
            {
              "internalType": "string",
              "name": "symbol",
              "type": "string"
            },
            {
              "internalType": "uint256",
              "name": "price",
              "type": "uint256"
            },
            {
              "internalType": "uint256",
              "name": "priceDate",
              "type": "uint256"
            },
            {
              "internalType": "uint256",
              "name": "date",
              "type": "uint256"
            }
          ],
          "internalType": "struct EtherlinkOraclePrice",
          "name": "_price",
          "type": "tuple"
        }
      ],
      "stateMutability": "view",
      "type": "function"
    },
    {
      "inputs": [],
      "name": "getPriceAtAge",
      "outputs": [
        {
          "components": [
            {
              "internalType": "string",
              "name": "provider",
              "type": "string"
            },
            {
              "internalType": "address",
              "name": "source",
              "type": "address"
            },
            {
              "internalType": "address",
              "name": "monitor",
              "type": "address"
            },
            {
              "internalType": "enum Network",
              "name": "network",
              "type": "uint8"
            },
            {
              "internalType": "string",
              "name": "symbol",
              "type": "string"
            },
            {
              "internalType": "uint256",
              "name": "price",
              "type": "uint256"
            },
            {
              "internalType": "uint256",
              "name": "priceDate",
              "type": "uint256"
            },
            {
              "internalType": "uint256",
              "name": "date",
              "type": "uint256"
            }
          ],
          "internalType": "struct EtherlinkOraclePrice",
          "name": "_price",
          "type": "tuple"
        }
      ],
      "stateMutability": "view",
      "type": "function"
    },
    {
      "inputs": [],
      "name": "getPriceId",
      "outputs": [
        {
          "internalType": "bytes32",
          "name": "_priceId",
          "type": "bytes32"
        },
        {
          "internalType": "string",
          "name": "_symbol",
          "type": "string"
        }
      ],
      "stateMutability": "view",
      "type": "function"
    },
    {
      "inputs": [],
      "name": "getVersion",
      "outputs": [
        {
          "internalType": "uint256",
          "name": "_version",
          "type": "uint256"
        }
      ],
      "stateMutability": "pure",
      "type": "function"
    },
    {
      "inputs": [
        {
          "internalType": "address",
          "name": "_admin",
          "type": "address"
        }
      ],
      "name": "removeAdmin",
      "outputs": [
        {
          "internalType": "bool",
          "name": "_removed",
          "type": "bool"
        }
      ],
      "stateMutability": "nonpayable",
      "type": "function"
    },
    {
      "inputs": [
        {
          "internalType": "uint256",
          "name": "_age",
          "type": "uint256"
        }
      ],
      "name": "setAge",
      "outputs": [
        {
          "internalType": "bool",
          "name": "_set",
          "type": "bool"
        }
      ],
      "stateMutability": "nonpayable",
      "type": "function"
    },
    {
      "inputs": [
        {
          "internalType": "bytes32",
          "name": "_priceId",
          "type": "bytes32"
        },
        {
          "internalType": "string",
          "name": "_symbol",
          "type": "string"
        }
      ],
      "name": "setPriceId",
      "outputs": [
        {
          "internalType": "bool",
          "name": "_set",
          "type": "bool"
        }
      ],
      "stateMutability": "nonpayable",
      "type": "function"
    }
  ],
  "bytecode": "0x60e0604052601660a09081527f45544845524c494e4b5f505954485f4d4f4e49544f520000000000000000000060c05260029061003c90826101d3565b50603c60065534801561004d575f5ffd5b5060405161132938038061132983398101604081905261006c916102b6565b846100d6816001600160a01b03165f8181526001602081905260408220805460ff191682179055815480820183559180527f290decd9548b62a8d60345a988386fc84ba6bc95484008f6362f93160ef3e56390910180546001600160a01b03191690921790915590565b50503060805260058054610100600160a81b0319166101006001600160a01b038716021790556003839055600461010d83826101d3565b506005805482919060ff19166001838181111561012c5761012c6103b6565b021790555050505050506103ca565b634e487b7160e01b5f52604160045260245ffd5b600181811c9082168061016357607f821691505b60208210810361018157634e487b7160e01b5f52602260045260245ffd5b50919050565b601f8211156101ce57805f5260205f20601f840160051c810160208510156101ac5750805b601f840160051c820191505b818110156101cb575f81556001016101b8565b50505b505050565b81516001600160401b038111156101ec576101ec61013b565b610200816101fa845461014f565b84610187565b6020601f821160018114610232575f831561021b5750848201515b5f19600385901b1c1916600184901b1784556101cb565b5f84815260208120601f198516915b828110156102615787850151825560209485019460019092019101610241565b508482101561027e57868401515f19600387901b60f8161c191681555b50505050600190811b01905550565b80516001600160a01b03811681146102a3575f5ffd5b919050565b8051600281106102a3575f5ffd5b5f5f5f5f5f60a086880312156102ca575f5ffd5b6102d38661028d565b94506102e16020870161028d565b6040870151606088015191955093506001600160401b03811115610303575f5ffd5b8601601f81018813610313575f5ffd5b80516001600160401b0381111561032c5761032c61013b565b604051601f8201601f19908116603f011681016001600160401b038111828210171561035a5761035a61013b565b6040528181528282016020018a1015610371575f5ffd5b5f5b8281101561038f57602081850181015183830182015201610373565b505f602083830101528094505050506103aa608087016102a8565b90509295509295909350565b634e487b7160e01b5f52602160045260245ffd5b608051610f476103e25f395f6102b20152610f475ff3fe608060405234801561000f575f5ffd5b50600436106100a6575f3560e01c8063704802751161006e5780637048027514610120578063967e6e651461013357806398d5fdca1461013b5780639eb5a6ec14610143578063d5dcf12714610159578063eb91d37e1461016c575f5ffd5b80630d8e6e2c146100aa5780631619b928146100c05780631785f53c146100d557806317d7de7c146100f8578063492f8fb11461010d575b5f5ffd5b60055b6040519081526020015b60405180910390f35b6100c86101b7565b6040516100b79190610abc565b6100e86100e3366004610b62565b6103a8565b60405190151581526020016100b7565b610100610444565b6040516100b79190610b8f565b6100e861011b366004610c0f565b6104d4565b6100e861012e366004610b62565b61051d565b6006546100ad565b6100c861060e565b61014b610687565b6040516100b7929190610cad565b6100e8610167366004610ccd565b610721565b610174610758565b6040516100b79190815160070b815260208083015167ffffffffffffffff169082015260408083015160030b908201526060918201519181019190915260800190565b604080516101008101825260608082525f60208301819052928201839052808201839052608082015260a0810182905260c0810182905260e081019190915260055460035460065460405163052571af60e51b8152600481019290925260248201525f9161010090046001600160a01b03169063a4ae35e0906044015b608060405180830381865afa15801561024f573d5f5f3e3d5ffd5b505050506040513d601f19601f820116820180604052508101906102739190610ce4565b60408051610140810182526004610100808301918252630a0b2a8960e31b6101208401529082526005549081046001600160a01b0390811660208401527f00000000000000000000000000000000000000000000000000000000000000001692820192909252919250606082019060ff1660018111156102f5576102f5610a88565b81526020016004805461030790610d5b565b80601f016020809104026020016040519081016040528092919081815260200182805461033390610d5b565b801561037e5780601f106103555761010080835404028352916020019161037e565b820191905f5260205f20905b81548152906001019060200180831161036157829003601f168201915b50505050508152602001825f015160070b8152602001826060015181526020014281525091505090565b335f9081526001602052604081205460ff166103df5760405162461bcd60e51b81526004016103d690610d93565b60405180910390fd5b6001600160a01b0382165f9081526001602052604090205460ff166104355760405162461bcd60e51b815260206004820152600c60248201526b34b9903737ba1030b236b4b760a11b60448201526064016103d6565b61043e826107fb565b92915050565b60606002805461045390610d5b565b80601f016020809104026020016040519081016040528092919081815260200182805461047f90610d5b565b80156104ca5780601f106104a1576101008083540402835291602001916104ca565b820191905f5260205f20905b8154815290600101906020018083116104ad57829003601f168201915b5050505050905090565b335f9081526001602052604081205460ff166105025760405162461bcd60e51b81526004016103d690610d93565b600383905560046105138382610e03565b5060019392505050565b335f9081526001602052604081205460ff1661054b5760405162461bcd60e51b81526004016103d690610d93565b6001600160a01b0382165f9081526001602052604090205460ff16156105a65760405162461bcd60e51b815260206004820152601060248201526f34b99030b63932b0b23c9030b236b4b760811b60448201526064016103d6565b6001600160a01b0382165f8181526001602081905260408220805460ff191682179055815480820183559180527f290decd9548b62a8d60345a988386fc84ba6bc95484008f6362f93160ef3e56390910180546001600160a01b03191690921790915561043e565b604080516101008101825260608082525f60208301819052928201839052808201839052608082015260a0810182905260c0810182905260e08101919091526005546003546040516396834ad360e01b815260048101919091525f9161010090046001600160a01b0316906396834ad390602401610234565b5f6060600354600480805461069b90610d5b565b80601f01602080910402602001604051908101604052809291908181526020018280546106c790610d5b565b80156107125780601f106106e957610100808354040283529160200191610712565b820191905f5260205f20905b8154815290600101906020018083116106f557829003601f168201915b50505050509050915091509091565b335f9081526001602052604081205460ff1661074f5760405162461bcd60e51b81526004016103d690610d93565b50600655600190565b604080516080810182525f80825260208201819052918101829052606081019190915260055460035460065460405163052571af60e51b8152600481019290925260248201526101009091046001600160a01b03169063a4ae35e090604401608060405180830381865afa1580156107d2573d5f5f3e3d5ffd5b505050506040513d601f19601f820116820180604052508101906107f69190610ce4565b905090565b5f80546001106108435760405162461bcd60e51b8152602060048201526013602482015272696e73756666696369656e742061646d696e7360681b60448201526064016103d6565b6001600160a01b0382165f908152600160209081526040808320805460ff1916905582548151818402810184019092528082526108be9391928301828280156108b357602002820191905f5260205f20905b81546001600160a01b03168152600190910190602001808311610895575b5050505050836108da565b80516108d1915f916020909101906109ce565b50600192915050565b6060600183516108ea9190610ed2565b67ffffffffffffffff81111561090257610902610ba1565b60405190808252806020026020018201604052801561092b578160200160208202803683370190505b5090505f805b84518110156109c657836001600160a01b031685828151811061095657610956610ee5565b60200260200101516001600160a01b0316146109be5784818151811061097e5761097e610ee5565b602002602001015183838151811061099857610998610ee5565b6001600160a01b0390921660209283029190910190910152816109ba81610ef9565b9250505b600101610931565b505092915050565b828054828255905f5260205f20908101928215610a21579160200282015b82811115610a2157825182546001600160a01b0319166001600160a01b039091161782556020909201916001909101906109ec565b50610a2d929150610a31565b5090565b5b80821115610a2d575f8155600101610a32565b5f81518084525f5b81811015610a6957602081850181015186830182015201610a4d565b505f602082860101526020601f19601f83011685010191505092915050565b634e487b7160e01b5f52602160045260245ffd5b60028110610ab857634e487b7160e01b5f52602160045260245ffd5b9052565b602081525f82516101006020840152610ad9610120840182610a45565b905060018060a01b0360208501511660408401526040840151610b0760608501826001600160a01b03169052565b506060840151610b1a6080850182610a9c565b506080840151838203601f190160a0850152610b368282610a45565b91505060a084015160c084015260c084015160e084015260e08401516101008401528091505092915050565b5f60208284031215610b72575f5ffd5b81356001600160a01b0381168114610b88575f5ffd5b9392505050565b602081525f610b886020830184610a45565b634e487b7160e01b5f52604160045260245ffd5b6040516080810167ffffffffffffffff81118282101715610bd857610bd8610ba1565b60405290565b604051601f8201601f1916810167ffffffffffffffff81118282101715610c0757610c07610ba1565b604052919050565b5f5f60408385031215610c20575f5ffd5b82359150602083013567ffffffffffffffff811115610c3d575f5ffd5b8301601f81018513610c4d575f5ffd5b803567ffffffffffffffff811115610c6757610c67610ba1565b610c7a601f8201601f1916602001610bde565b818152866020838501011115610c8e575f5ffd5b816020840160208301375f602083830101528093505050509250929050565b828152604060208201525f610cc56040830184610a45565b949350505050565b5f60208284031215610cdd575f5ffd5b5035919050565b5f6080828403128015610cf5575f5ffd5b50610cfe610bb5565b82518060070b8114610d0e575f5ffd5b8152602083015167ffffffffffffffff81168114610d2a575f5ffd5b60208201526040830151600381900b8114610d43575f5ffd5b60408201526060928301519281019290925250919050565b600181811c90821680610d6f57607f821691505b602082108103610d8d57634e487b7160e01b5f52602260045260245ffd5b50919050565b6020808252600a908201526961646d696e206f6e6c7960b01b604082015260600190565b601f821115610dfe57805f5260205f20601f840160051c81016020851015610ddc5750805b601f840160051c820191505b81811015610dfb575f8155600101610de8565b50505b505050565b815167ffffffffffffffff811115610e1d57610e1d610ba1565b610e3181610e2b8454610d5b565b84610db7565b6020601f821160018114610e63575f8315610e4c5750848201515b5f19600385901b1c1916600184901b178455610dfb565b5f84815260208120601f198516915b82811015610e925787850151825560209485019460019092019101610e72565b5084821015610eaf57868401515f19600387901b60f8161c191681555b50505050600190811b01905550565b634e487b7160e01b5f52601160045260245ffd5b8181038181111561043e5761043e610ebe565b634e487b7160e01b5f52603260045260245ffd5b5f60018201610f0a57610f0a610ebe565b506001019056fea2646970667358221220a86e6a5d5350058c8e1d5f24a439637d0efa275b4c466c017a0863169a680d7464736f6c634300081b0033",
  "linkReferences": {},
  "deployedLinkReferences": {}
}